{
  "contractName": "StudentRecords",
  "abi": [
    {
      "inputs": [],
      "stateMutability": "nonpayable",
      "type": "constructor"
    },
    {
      "anonymous": false,
      "inputs": [
        {
          "indexed": false,
          "internalType": "uint256",
          "name": "amount",
          "type": "uint256"
        },
        {
          "indexed": false,
          "internalType": "address",
          "name": "from",
          "type": "address"
        }
      ],
      "name": "deposited",
      "type": "event"
    },
    {
      "anonymous": false,
      "inputs": [
        {
          "indexed": false,
          "internalType": "uint256",
          "name": "amount",
          "type": "uint256"
        },
        {
          "indexed": false,
          "internalType": "string",
          "name": "name",
          "type": "string"
        },
        {
          "indexed": false,
          "internalType": "uint256",
          "name": "id",
          "type": "uint256"
        },
        {
          "indexed": false,
          "internalType": "address",
          "name": "_address",
          "type": "address"
        }
      ],
      "name": "etherSent",
      "type": "event"
    },
    {
      "anonymous": false,
      "inputs": [
        {
          "indexed": false,
          "internalType": "uint256",
          "name": "id",
          "type": "uint256"
        },
        {
          "indexed": false,
          "internalType": "string",
          "name": "oldGrade",
          "type": "string"
        },
        {
          "indexed": false,
          "internalType": "string",
          "name": "newGrade",
          "type": "string"
        }
      ],
      "name": "gradeUpdated",
      "type": "event"
    },
    {
      "anonymous": false,
      "inputs": [
        {
          "indexed": false,
          "internalType": "uint256",
          "name": "id",
          "type": "uint256"
        },
        {
          "indexed": false,
          "internalType": "string",
          "name": "oldName",
          "type": "string"
        },
        {
          "indexed": false,
          "internalType": "string",
          "name": "newName",
          "type": "string"
        }
      ],
      "name": "nameUpdated",
      "type": "event"
    },
    {
      "anonymous": false,
      "inputs": [
        {
          "indexed": false,
          "internalType": "uint256",
          "name": "id",
          "type": "uint256"
        },
        {
          "indexed": false,
          "internalType": "uint256",
          "name": "oldRoll",
          "type": "uint256"
        },
        {
          "indexed": false,
          "internalType": "uint256",
          "name": "newRoll",
          "type": "uint256"
        }
      ],
      "name": "rollUpdated",
      "type": "event"
    },
    {
      "anonymous": false,
      "inputs": [
        {
          "indexed": false,
          "internalType": "uint256",
          "name": "id",
          "type": "uint256"
        },
        {
          "indexed": false,
          "internalType": "uint256",
          "name": "oldSem",
          "type": "uint256"
        },
        {
          "indexed": false,
          "internalType": "uint256",
          "name": "newSem",
          "type": "uint256"
        }
      ],
      "name": "semUpdated",
      "type": "event"
    },
    {
      "anonymous": false,
      "inputs": [
        {
          "indexed": false,
          "internalType": "uint256",
          "name": "id",
          "type": "uint256"
        },
        {
          "indexed": false,
          "internalType": "string",
          "name": "name",
          "type": "string"
        },
        {
          "indexed": false,
          "internalType": "uint256",
          "name": "roll",
          "type": "uint256"
        },
        {
          "indexed": false,
          "internalType": "uint256",
          "name": "sem",
          "type": "uint256"
        },
        {
          "indexed": false,
          "internalType": "address",
          "name": "walletKey",
          "type": "address"
        }
      ],
      "name": "studentRegistered",
      "type": "event"
    },
    {
      "inputs": [],
      "name": "_owner",
      "outputs": [
        {
          "internalType": "address",
          "name": "",
          "type": "address"
        }
      ],
      "stateMutability": "view",
      "type": "function",
      "constant": true
    },
    {
      "inputs": [],
      "name": "studentCount",
      "outputs": [
        {
          "internalType": "uint256",
          "name": "",
          "type": "uint256"
        }
      ],
      "stateMutability": "view",
      "type": "function",
      "constant": true
    },
    {
      "inputs": [
        {
          "internalType": "string",
          "name": "name",
          "type": "string"
        },
        {
          "internalType": "uint256",
          "name": "rollno",
          "type": "uint256"
        },
        {
          "internalType": "uint256",
          "name": "sem",
          "type": "uint256"
        },
        {
          "internalType": "address",
          "name": "key",
          "type": "address"
        }
      ],
      "name": "registerStudent",
      "outputs": [
        {
          "internalType": "uint256",
          "name": "",
          "type": "uint256"
        },
        {
          "internalType": "bool",
          "name": "",
          "type": "bool"
        }
      ],
      "stateMutability": "nonpayable",
      "type": "function"
    },
    {
      "inputs": [
        {
          "internalType": "uint256",
          "name": "id",
          "type": "uint256"
        }
      ],
      "name": "getStudent",
      "outputs": [
        {
          "internalType": "string",
          "name": "",
          "type": "string"
        },
        {
          "internalType": "uint256",
          "name": "",
          "type": "uint256"
        },
        {
          "internalType": "uint256",
          "name": "",
          "type": "uint256"
        }
      ],
      "stateMutability": "view",
      "type": "function",
      "constant": true
    },
    {
      "inputs": [
        {
          "internalType": "uint256",
          "name": "id",
          "type": "uint256"
        }
      ],
      "name": "getStudentBasicInfo",
      "outputs": [
        {
          "internalType": "uint256",
          "name": "",
          "type": "uint256"
        },
        {
          "internalType": "string",
          "name": "",
          "type": "string"
        },
        {
          "internalType": "uint256",
          "name": "",
          "type": "uint256"
        }
      ],
      "stateMutability": "view",
      "type": "function",
      "constant": true
    },
    {
      "inputs": [
        {
          "internalType": "uint256",
          "name": "id",
          "type": "uint256"
        },
        {
          "internalType": "uint256",
          "name": "sem",
          "type": "uint256"
        }
      ],
      "name": "getStudentGrades",
      "outputs": [
        {
          "internalType": "string",
          "name": "",
          "type": "string"
        }
      ],
      "stateMutability": "view",
      "type": "function",
      "constant": true
    },
    {
      "inputs": [
        {
          "internalType": "uint256",
          "name": "id",
          "type": "uint256"
        }
      ],
      "name": "getWallet",
      "outputs": [
        {
          "internalType": "address",
          "name": "",
          "type": "address"
        }
      ],
      "stateMutability": "view",
      "type": "function",
      "constant": true
    },
    {
      "inputs": [
        {
          "internalType": "uint256",
          "name": "id",
          "type": "uint256"
        },
        {
          "internalType": "string",
          "name": "name",
          "type": "string"
        }
      ],
      "name": "updateName",
      "outputs": [
        {
          "internalType": "bool",
          "name": "",
          "type": "bool"
        }
      ],
      "stateMutability": "nonpayable",
      "type": "function"
    },
    {
      "inputs": [
        {
          "internalType": "uint256",
          "name": "id",
          "type": "uint256"
        },
        {
          "internalType": "uint256",
          "name": "roll",
          "type": "uint256"
        }
      ],
      "name": "updateRoll",
      "outputs": [
        {
          "internalType": "bool",
          "name": "",
          "type": "bool"
        }
      ],
      "stateMutability": "nonpayable",
      "type": "function"
    },
    {
      "inputs": [
        {
          "internalType": "uint256",
          "name": "id",
          "type": "uint256"
        },
        {
          "internalType": "uint256",
          "name": "sem",
          "type": "uint256"
        }
      ],
      "name": "updateSem",
      "outputs": [
        {
          "internalType": "bool",
          "name": "",
          "type": "bool"
        }
      ],
      "stateMutability": "nonpayable",
      "type": "function"
    },
    {
      "inputs": [
        {
          "internalType": "uint256",
          "name": "id",
          "type": "uint256"
        },
        {
          "internalType": "uint256",
          "name": "sem",
          "type": "uint256"
        },
        {
          "internalType": "string",
          "name": "_grade",
          "type": "string"
        }
      ],
      "name": "addGrade",
      "outputs": [
        {
          "internalType": "bool",
          "name": "",
          "type": "bool"
        }
      ],
      "stateMutability": "nonpayable",
      "type": "function"
    },
    {
      "inputs": [
        {
          "internalType": "uint256",
          "name": "id",
          "type": "uint256"
        },
        {
          "internalType": "uint256",
          "name": "sem",
          "type": "uint256"
        }
      ],
      "name": "getGrade",
      "outputs": [
        {
          "internalType": "string",
          "name": "a",
          "type": "string"
        }
      ],
      "stateMutability": "view",
      "type": "function",
      "constant": true
    },
    {
      "inputs": [
        {
          "internalType": "uint256",
          "name": "id",
          "type": "uint256"
        },
        {
          "internalType": "uint256",
          "name": "sem",
          "type": "uint256"
        },
        {
          "internalType": "string",
          "name": "_grade",
          "type": "string"
        }
      ],
      "name": "updateGrade",
      "outputs": [
        {
          "internalType": "bool",
          "name": "",
          "type": "bool"
        }
      ],
      "stateMutability": "nonpayable",
      "type": "function"
    },
    {
      "inputs": [
        {
          "internalType": "uint256",
          "name": "id",
          "type": "uint256"
        },
        {
          "internalType": "uint256",
          "name": "sem",
          "type": "uint256"
        }
      ],
      "name": "updateAttendance",
      "outputs": [
        {
          "internalType": "bool",
          "name": "",
          "type": "bool"
        }
      ],
      "stateMutability": "nonpayable",
      "type": "function"
    },
    {
      "inputs": [
        {
          "internalType": "uint256",
          "name": "id",
          "type": "uint256"
        },
        {
          "internalType": "uint256",
          "name": "sem",
          "type": "uint256"
        }
      ],
      "name": "getAttendance",
      "outputs": [
        {
          "internalType": "uint256",
          "name": "",
          "type": "uint256"
        }
      ],
      "stateMutability": "view",
      "type": "function",
      "constant": true
    },
    {
      "inputs": [
        {
          "internalType": "uint256",
          "name": "id",
          "type": "uint256"
        }
      ],
      "name": "balanceOf",
      "outputs": [
        {
          "internalType": "uint256",
          "name": "",
          "type": "uint256"
        }
      ],
      "stateMutability": "view",
      "type": "function",
      "constant": true
    },
    {
      "inputs": [],
      "name": "viewBalance",
      "outputs": [
        {
          "internalType": "uint256",
          "name": "",
          "type": "uint256"
        }
      ],
      "stateMutability": "view",
      "type": "function",
      "constant": true
    },
    {
      "inputs": [
        {
          "internalType": "uint256",
          "name": "amount",
          "type": "uint256"
        }
      ],
      "name": "deposit",
      "outputs": [
        {
          "internalType": "bool",
          "name": "",
          "type": "bool"
        }
      ],
      "stateMutability": "payable",
      "type": "function",
      "payable": true
    },
    {
      "inputs": [
        {
          "internalType": "uint256",
          "name": "amount",
          "type": "uint256"
        },
        {
          "internalType": "uint256",
          "name": "id",
          "type": "uint256"
        }
      ],
      "name": "sendEther",
      "outputs": [
        {
          "internalType": "bool",
          "name": "",
          "type": "bool"
        }
      ],
      "stateMutability": "nonpayable",
      "type": "function"
    },
    {
      "inputs": [
        {
          "internalType": "uint256",
          "name": "value",
          "type": "uint256"
        },
        {
          "internalType": "uint256",
          "name": "sem",
          "type": "uint256"
        }
      ],
      "name": "setAttendance",
      "outputs": [
        {
          "internalType": "bool",
          "name": "",
          "type": "bool"
        }
      ],
      "stateMutability": "nonpayable",
      "type": "function"
    },
    {
      "inputs": [
        {
          "internalType": "uint256",
          "name": "sem",
          "type": "uint256"
        }
      ],
      "name": "distributePrize",
      "outputs": [
        {
          "internalType": "bool",
          "name": "",
          "type": "bool"
        }
      ],
      "stateMutability": "nonpayable",
      "type": "function"
    },
    {
      "inputs": [
        {
          "internalType": "uint256",
          "name": "id",
          "type": "uint256"
        }
      ],
      "name": "deleteStudent",
      "outputs": [
        {
          "internalType": "bool",
          "name": "",
          "type": "bool"
        }
      ],
      "stateMutability": "nonpayable",
      "type": "function"
    }
  ],
  "bytecode": "0x608060405234801561000f575f80fd5b503360025f6101000a81548173ffffffffffffffffffffffffffffffffffffffff021916908373ffffffffffffffffffffffffffffffffffffffff1602179055506140b08061005d5f395ff3fe608060405260043610610134575f3560e01c80639cc7f708116100aa578063cbd9e8da1161006e578063cbd9e8da146104cc578063d360694814610508578063d88d900b14610544578063dd0ec14c14610581578063e41a8489146105bd578063e581f9ee146105f957610134565b80639cc7f708146103bc578063b2bdfa7b146103f8578063b645307d14610422578063b6b55f251461045e578063b9c1451c1461048e57610134565b80634d7b4139116100fc5780634d7b41391461025257806353e76f2c1461028e5780635470b13b146102ca578063642f9163146103065780636aaa968e14610344578063993517421461038057610134565b8063234a943c14610138578063374a62a0146101745780633ff1e05b146101b05780634788cec8146101da5780634c1ba35d14610216575b5f80fd5b348015610143575f80fd5b5061015e60048036038101906101599190612ea0565b610623565b60405161016b9190612ef8565b60405180910390f35b34801561017f575f80fd5b5061019a60048036038101906101959190612ea0565b6107eb565b6040516101a79190612f9b565b60405180910390f35b3480156101bb575f80fd5b506101c46109bf565b6040516101d19190612fca565b60405180910390f35b3480156101e5575f80fd5b5061020060048036038101906101fb9190612ea0565b610a55565b60405161020d9190612ef8565b60405180910390f35b348015610221575f80fd5b5061023c60048036038101906102379190612ea0565b610c49565b6040516102499190612ef8565b60405180910390f35b34801561025d575f80fd5b5061027860048036038101906102739190612ea0565b610e96565b6040516102859190612fca565b60405180910390f35b348015610299575f80fd5b506102b460048036038101906102af919061310f565b610fe3565b6040516102c19190612ef8565b60405180910390f35b3480156102d5575f80fd5b506102f060048036038101906102eb9190613169565b6111b3565b6040516102fd91906131d3565b60405180910390f35b348015610311575f80fd5b5061032c60048036038101906103279190613169565b6111ee565b60405161033b939291906131ec565b60405180910390f35b34801561034f575f80fd5b5061036a60048036038101906103659190612ea0565b61138c565b6040516103779190612ef8565b60405180910390f35b34801561038b575f80fd5b506103a660048036038101906103a19190613169565b61143c565b6040516103b39190612ef8565b60405180910390f35b3480156103c7575f80fd5b506103e260048036038101906103dd9190613169565b611928565b6040516103ef9190612fca565b60405180910390f35b348015610403575f80fd5b5061040c611a47565b60405161041991906131d3565b60405180910390f35b34801561042d575f80fd5b5061044860048036038101906104439190613169565b611a6c565b6040516104559190612ef8565b60405180910390f35b61047860048036038101906104739190613169565b611bf9565b6040516104859190612ef8565b60405180910390f35b348015610499575f80fd5b506104b460048036038101906104af9190613169565b611d2e565b6040516104c393929190613228565b60405180910390f35b3480156104d7575f80fd5b506104f260048036038101906104ed9190613264565b611f5a565b6040516104ff9190612ef8565b60405180910390f35b348015610513575f80fd5b5061052e60048036038101906105299190612ea0565b6121b9565b60405161053b9190612ef8565b60405180910390f35b34801561054f575f80fd5b5061056a600480360381019061056591906132fa565b6123c9565b60405161057892919061337a565b60405180910390f35b34801561058c575f80fd5b506105a760048036038101906105a29190612ea0565b61269d565b6040516105b49190612f9b565b60405180910390f35b3480156105c8575f80fd5b506105e360048036038101906105de9190613264565b6128a7565b6040516105f09190612ef8565b60405180910390f35b348015610604575f80fd5b5061060d612a93565b60405161061a9190612fca565b60405180910390f35b5f60025f9054906101000a900473ffffffffffffffffffffffffffffffffffffffff1673ffffffffffffffffffffffffffffffffffffffff163373ffffffffffffffffffffffffffffffffffffffff16146106b3576040517f08c379a00000000000000000000000000000000000000000000000000000000081526004016106aa906133eb565b60405180910390fd5b825f808281526020019081526020015f2060060160149054906101000a900460ff16610714576040517f08c379a000000000000000000000000000000000000000000000000000000000815260040161070b90613453565b60405180910390fd5b5f15155f808381526020019081526020015f2060060160159054906101000a900460ff1615151461077a576040517f08c379a0000000000000000000000000000000000000000000000000000000008152600401610771906134bb565b60405180910390fd5b7f4dfaea1ab5860397146e6845622e0c61a891fe0f44ab384249d87fe88aef150c845f808781526020019081526020015f2060030154856040516107c0939291906134d9565b60405180910390a1825f808681526020019081526020015f2060030181905550600191505092915050565b6060825f808281526020019081526020015f2060060160149054906101000a900460ff1661084e576040517f08c379a000000000000000000000000000000000000000000000000000000000815260040161084590613453565b60405180910390fd5b5f15155f808381526020019081526020015f2060060160159054906101000a900460ff161515146108b4576040517f08c379a00000000000000000000000000000000000000000000000000000000081526004016108ab906134bb565b60405180910390fd5b8383805f808481526020019081526020015f20600301541061090b576040517f08c379a00000000000000000000000000000000000000000000000000000000081526004016109029061357e565b60405180910390fd5b5f808781526020019081526020015f206004015f8681526020019081526020015f208054610938906135c9565b80601f0160208091040260200160405190810160405280929190818152602001828054610964906135c9565b80156109af5780601f10610986576101008083540402835291602001916109af565b820191905f5260205f20905b81548152906001019060200180831161099257829003601f168201915b5050505050935050505092915050565b5f60025f9054906101000a900473ffffffffffffffffffffffffffffffffffffffff1673ffffffffffffffffffffffffffffffffffffffff163373ffffffffffffffffffffffffffffffffffffffff1614610a4f576040517f08c379a0000000000000000000000000000000000000000000000000000000008152600401610a46906133eb565b60405180910390fd5b47905090565b5f60025f9054906101000a900473ffffffffffffffffffffffffffffffffffffffff1673ffffffffffffffffffffffffffffffffffffffff163373ffffffffffffffffffffffffffffffffffffffff1614610ae5576040517f08c379a0000000000000000000000000000000000000000000000000000000008152600401610adc906133eb565b60405180910390fd5b825f808281526020019081526020015f2060060160149054906101000a900460ff16610b46576040517f08c379a0000000000000000000000000000000000000000000000000000000008152600401610b3d90613453565b60405180910390fd5b5f15155f808381526020019081526020015f2060060160159054906101000a900460ff16151514610bac576040517f08c379a0000000000000000000000000000000000000000000000000000000008152600401610ba3906134bb565b60405180910390fd5b8383805f808481526020019081526020015f206003015410610c03576040517f08c379a0000000000000000000000000000000000000000000000000000000008152600401610bfa9061357e565b60405180910390fd5b60015f808881526020019081526020015f206005015f8781526020019081526020015f205f828254610c359190613626565b925050819055506001935050505092915050565b5f60025f9054906101000a900473ffffffffffffffffffffffffffffffffffffffff1673ffffffffffffffffffffffffffffffffffffffff163373ffffffffffffffffffffffffffffffffffffffff1614610cd9576040517f08c379a0000000000000000000000000000000000000000000000000000000008152600401610cd0906133eb565b60405180910390fd5b5f8311610d1b576040517f08c379a0000000000000000000000000000000000000000000000000000000008152600401610d12906136a3565b60405180910390fd5b824711610d5d576040517f08c379a0000000000000000000000000000000000000000000000000000000008152600401610d5490613731565b60405180910390fd5b5f805f8481526020019081526020015f206006015f9054906101000a900473ffffffffffffffffffffffffffffffffffffffff1690505f8173ffffffffffffffffffffffffffffffffffffffff1685604051610db89061377c565b5f6040518083038185875af1925050503d805f8114610df2576040519150601f19603f3d011682016040523d82523d5f602084013e610df7565b606091505b5050905080610e3b576040517f08c379a0000000000000000000000000000000000000000000000000000000008152600401610e32906137da565b60405180910390fd5b7fcbe3b4cfcf352c718dd128e1d1e05d3318ca8c4fc00ba718bcfbaeebdb39f59e855f808781526020019081526020015f206001018685604051610e82949392919061388b565b60405180910390a160019250505092915050565b5f825f808281526020019081526020015f2060060160149054906101000a900460ff16610ef8576040517f08c379a0000000000000000000000000000000000000000000000000000000008152600401610eef90613453565b60405180910390fd5b5f15155f808381526020019081526020015f2060060160159054906101000a900460ff16151514610f5e576040517f08c379a0000000000000000000000000000000000000000000000000000000008152600401610f55906134bb565b60405180910390fd5b8383805f808481526020019081526020015f206003015410610fb5576040517f08c379a0000000000000000000000000000000000000000000000000000000008152600401610fac9061357e565b60405180910390fd5b5f808781526020019081526020015f206005015f8681526020019081526020015f2054935050505092915050565b5f60025f9054906101000a900473ffffffffffffffffffffffffffffffffffffffff1673ffffffffffffffffffffffffffffffffffffffff163373ffffffffffffffffffffffffffffffffffffffff1614611073576040517f08c379a000000000000000000000000000000000000000000000000000000000815260040161106a906133eb565b60405180910390fd5b825f808281526020019081526020015f2060060160149054906101000a900460ff166110d4576040517f08c379a00000000000000000000000000000000000000000000000000000000081526004016110cb90613453565b60405180910390fd5b5f15155f808381526020019081526020015f2060060160159054906101000a900460ff1615151461113a576040517f08c379a0000000000000000000000000000000000000000000000000000000008152600401611131906134bb565b60405180910390fd5b7fbe23cd60b822fa2e94e61c3414b3b7dd7fe9a6b7cf62a09fea2a7fa84a50b01c845f808781526020019081526020015f206001018560405161117f939291906138d5565b60405180910390a1825f808681526020019081526020015f2060010190816111a79190613aa3565b50600191505092915050565b5f805f8381526020019081526020015f206006015f9054906101000a900473ffffffffffffffffffffffffffffffffffffffff169050919050565b60605f80835f808281526020019081526020015f2060060160149054906101000a900460ff16611253576040517f08c379a000000000000000000000000000000000000000000000000000000000815260040161124a90613453565b60405180910390fd5b5f15155f808381526020019081526020015f2060060160159054906101000a900460ff161515146112b9576040517f08c379a00000000000000000000000000000000000000000000000000000000081526004016112b0906134bb565b60405180910390fd5b5f808681526020019081526020015f206001015f808781526020019081526020015f20600201545f808881526020019081526020015f2060030154828054611300906135c9565b80601f016020809104026020016040519081016040528092919081815260200182805461132c906135c9565b80156113775780601f1061134e57610100808354040283529160200191611377565b820191905f5260205f20905b81548152906001019060200180831161135a57829003601f168201915b50505050509250935093509350509193909250565b5f60025f9054906101000a900473ffffffffffffffffffffffffffffffffffffffff1673ffffffffffffffffffffffffffffffffffffffff163373ffffffffffffffffffffffffffffffffffffffff161461141c576040517f08c379a0000000000000000000000000000000000000000000000000000000008152600401611413906133eb565b60405180910390fd5b8260035f8481526020019081526020015f20819055506001905092915050565b5f60025f9054906101000a900473ffffffffffffffffffffffffffffffffffffffff1673ffffffffffffffffffffffffffffffffffffffff163373ffffffffffffffffffffffffffffffffffffffff16146114cc576040517f08c379a00000000000000000000000000000000000000000000000000000000081526004016114c3906133eb565b60405180910390fd5b5f60035f8481526020019081526020015f20541161151f576040517f08c379a000000000000000000000000000000000000000000000000000000000815260040161151690613be2565b60405180910390fd5b5f805f600190505b600154811161159e575f15155f808381526020019081526020015f2060060160159054906101000a900460ff1615150361158b575f805f8381526020019081526020015f20600301549050858103611589576001846115869190613626565b93505b505b808061159690613c00565b915050611527565b505f8267ffffffffffffffff8111156115ba576115b9612feb565b5b6040519080825280602002602001820160405280156115e85781602001602082028036833780820191505090505b5090505f600190505b6001548111611688575f15155f808381526020019081526020015f2060060160159054906101000a900460ff16151503611675575f805f8381526020019081526020015f20600301549050868103611673578183858151811061165757611656613c47565b5b6020026020010181815250506001846116709190613626565b93505b505b808061168090613c00565b9150506115f1565b505f92505f91505f5b8151811015611747575f8282815181106116ae576116ad613c47565b5b602002602001015190505f15155f808381526020019081526020015f2060060160159054906101000a900460ff16151503611733575f805f8381526020019081526020015f206005015f8981526020019081526020015f2054905060035f8981526020019081526020015f205481036117315760018661172e9190613626565b95505b505b50808061173f90613c00565b915050611691565b505f8367ffffffffffffffff81111561176357611762612feb565b5b6040519080825280602002602001820160405280156117915781602001602082028036833780820191505090505b5090505f5b825181101561186c575f8382815181106117b3576117b2613c47565b5b602002602001015190505f15155f808481526020019081526020015f2060060160159054906101000a900460ff16151503611858575f805f8381526020019081526020015f206005015f8a81526020019081526020015f2054905060035f8a81526020019081526020015f20548103611856578184878151811061183a57611839613c47565b5b6020026020010181815250506001866118539190613626565b95505b505b50808061186490613c00565b915050611796565b505f815190505f61188e674563918244f4000083612a9990919063ffffffff16565b9050804710156118d3576040517f08c379a00000000000000000000000000000000000000000000000000000000081526004016118ca90613cbe565b60405180910390fd5b5f5b82811015611918575f8482815181106118f1576118f0613c47565b5b6020026020010151905061190481612ade565b50808061191090613c00565b9150506118d5565b5060019650505050505050919050565b5f815f808281526020019081526020015f2060060160149054906101000a900460ff1661198a576040517f08c379a000000000000000000000000000000000000000000000000000000000815260040161198190613453565b60405180910390fd5b5f15155f808381526020019081526020015f2060060160159054906101000a900460ff161515146119f0576040517f08c379a00000000000000000000000000000000000000000000000000000000081526004016119e7906134bb565b60405180910390fd5b5f805f8581526020019081526020015f206006015f9054906101000a900473ffffffffffffffffffffffffffffffffffffffff1690508073ffffffffffffffffffffffffffffffffffffffff163192505050919050565b60025f9054906101000a900473ffffffffffffffffffffffffffffffffffffffff1681565b5f60025f9054906101000a900473ffffffffffffffffffffffffffffffffffffffff1673ffffffffffffffffffffffffffffffffffffffff163373ffffffffffffffffffffffffffffffffffffffff1614611afc576040517f08c379a0000000000000000000000000000000000000000000000000000000008152600401611af3906133eb565b60405180910390fd5b815f808281526020019081526020015f2060060160149054906101000a900460ff16611b5d576040517f08c379a0000000000000000000000000000000000000000000000000000000008152600401611b5490613453565b60405180910390fd5b5f15155f808381526020019081526020015f2060060160159054906101000a900460ff16151514611bc3576040517f08c379a0000000000000000000000000000000000000000000000000000000008152600401611bba906134bb565b60405180910390fd5b60015f808581526020019081526020015f2060060160156101000a81548160ff0219169083151502179055506001915050919050565b5f60025f9054906101000a900473ffffffffffffffffffffffffffffffffffffffff1673ffffffffffffffffffffffffffffffffffffffff163373ffffffffffffffffffffffffffffffffffffffff1614611c89576040517f08c379a0000000000000000000000000000000000000000000000000000000008152600401611c80906133eb565b60405180910390fd5b5f8211611ccb576040517f08c379a0000000000000000000000000000000000000000000000000000000008152600401611cc2906136a3565b60405180910390fd5b7fa23831066066ec8812cc52afc91a52134a8b50c9209b68c276be679f4073d95d8260025f9054906101000a900473ffffffffffffffffffffffffffffffffffffffff16604051611d1d929190613cdc565b60405180910390a160019050919050565b5f60605f60025f9054906101000a900473ffffffffffffffffffffffffffffffffffffffff1673ffffffffffffffffffffffffffffffffffffffff163373ffffffffffffffffffffffffffffffffffffffff1614611dc1576040517f08c379a0000000000000000000000000000000000000000000000000000000008152600401611db8906133eb565b60405180910390fd5b835f808281526020019081526020015f2060060160149054906101000a900460ff16611e22576040517f08c379a0000000000000000000000000000000000000000000000000000000008152600401611e1990613453565b60405180910390fd5b5f15155f808381526020019081526020015f2060060160159054906101000a900460ff16151514611e88576040517f08c379a0000000000000000000000000000000000000000000000000000000008152600401611e7f906134bb565b60405180910390fd5b5f808681526020019081526020015f205f01545f808781526020019081526020015f206001015f808881526020019081526020015f2060020154818054611ece906135c9565b80601f0160208091040260200160405190810160405280929190818152602001828054611efa906135c9565b8015611f455780601f10611f1c57610100808354040283529160200191611f45565b820191905f5260205f20905b815481529060010190602001808311611f2857829003601f168201915b50505050509150935093509350509193909250565b5f60025f9054906101000a900473ffffffffffffffffffffffffffffffffffffffff1673ffffffffffffffffffffffffffffffffffffffff163373ffffffffffffffffffffffffffffffffffffffff1614611fea576040517f08c379a0000000000000000000000000000000000000000000000000000000008152600401611fe1906133eb565b60405180910390fd5b835f808281526020019081526020015f2060060160149054906101000a900460ff1661204b576040517f08c379a000000000000000000000000000000000000000000000000000000000815260040161204290613453565b60405180910390fd5b5f15155f808381526020019081526020015f2060060160159054906101000a900460ff161515146120b1576040517f08c379a00000000000000000000000000000000000000000000000000000000081526004016120a8906134bb565b60405180910390fd5b5f805f8781526020019081526020015f206004015f8681526020019081526020015f2080546120df906135c9565b905003612121576040517f08c379a000000000000000000000000000000000000000000000000000000000815260040161211890613d4d565b60405180910390fd5b7f5b01da807e693ed052f6d4421aad901bd24c4d8a574899baa558b59ab6786ce7855f808881526020019081526020015f206004015f8781526020019081526020015f2085604051612175939291906138d5565b60405180910390a1825f808781526020019081526020015f206004015f8681526020019081526020015f2090816121ac9190613aa3565b5060019150509392505050565b5f60025f9054906101000a900473ffffffffffffffffffffffffffffffffffffffff1673ffffffffffffffffffffffffffffffffffffffff163373ffffffffffffffffffffffffffffffffffffffff1614612249576040517f08c379a0000000000000000000000000000000000000000000000000000000008152600401612240906133eb565b60405180910390fd5b825f808281526020019081526020015f2060060160149054906101000a900460ff166122aa576040517f08c379a00000000000000000000000000000000000000000000000000000000081526004016122a190613453565b60405180910390fd5b5f15155f808381526020019081526020015f2060060160159054906101000a900460ff16151514612310576040517f08c379a0000000000000000000000000000000000000000000000000000000008152600401612307906134bb565b60405180910390fd5b61231983612bc9565b612358576040517f08c379a000000000000000000000000000000000000000000000000000000000815260040161234f90613db5565b60405180910390fd5b7f6758385a4d8acaa30445284f03344efe629d92dd028f63a47355ec8bccf371d2845f808781526020019081526020015f20600201548560405161239e939291906134d9565b60405180910390a1825f808681526020019081526020015f2060020181905550600191505092915050565b5f8060025f9054906101000a900473ffffffffffffffffffffffffffffffffffffffff1673ffffffffffffffffffffffffffffffffffffffff163373ffffffffffffffffffffffffffffffffffffffff161461245a576040517f08c379a0000000000000000000000000000000000000000000000000000000008152600401612451906133eb565b60405180910390fd5b61246383612ced565b6124a2576040517f08c379a000000000000000000000000000000000000000000000000000000000815260040161249990613e43565b60405180910390fd5b6124ab85612bc9565b6124ea576040517f08c379a00000000000000000000000000000000000000000000000000000000081526004016124e190613ed1565b60405180910390fd5b60015f8154809291906124fc90613c00565b91905055506001545f8060015481526020019081526020015f205f0181905550855f8060015481526020019081526020015f20600101908161253e9190613aa3565b50845f8060015481526020019081526020015f2060020181905550835f8060015481526020019081526020015f20600301819055505f805f60015481526020019081526020015f206005015f8681526020019081526020015f2081905550825f8060015481526020019081526020015f206006015f6101000a81548173ffffffffffffffffffffffffffffffffffffffff021916908373ffffffffffffffffffffffffffffffffffffffff16021790555060015f8060015481526020019081526020015f2060060160146101000a81548160ff0219169083151502179055505f805f60015481526020019081526020015f2060060160156101000a81548160ff0219169083151502179055507fd4b4b3179ba4fb2c6106119562316a46156ae32b0a9b715b3cdf54813039617960015487878787604051612683959493929190613eef565b60405180910390a160015460019150915094509492505050565b606060025f9054906101000a900473ffffffffffffffffffffffffffffffffffffffff1673ffffffffffffffffffffffffffffffffffffffff163373ffffffffffffffffffffffffffffffffffffffff161461272e576040517f08c379a0000000000000000000000000000000000000000000000000000000008152600401612725906133eb565b60405180910390fd5b825f808281526020019081526020015f2060060160149054906101000a900460ff1661278f576040517f08c379a000000000000000000000000000000000000000000000000000000000815260040161278690613453565b60405180910390fd5b5f15155f808381526020019081526020015f2060060160159054906101000a900460ff161515146127f5576040517f08c379a00000000000000000000000000000000000000000000000000000000081526004016127ec906134bb565b60405180910390fd5b5f808581526020019081526020015f206004015f8481526020019081526020015f208054612822906135c9565b80601f016020809104026020016040519081016040528092919081815260200182805461284e906135c9565b80156128995780601f1061287057610100808354040283529160200191612899565b820191905f5260205f20905b81548152906001019060200180831161287c57829003601f168201915b505050505091505092915050565b5f60025f9054906101000a900473ffffffffffffffffffffffffffffffffffffffff1673ffffffffffffffffffffffffffffffffffffffff163373ffffffffffffffffffffffffffffffffffffffff1614612937576040517f08c379a000000000000000000000000000000000000000000000000000000000815260040161292e906133eb565b60405180910390fd5b835f808281526020019081526020015f2060060160149054906101000a900460ff16612998576040517f08c379a000000000000000000000000000000000000000000000000000000000815260040161298f90613453565b60405180910390fd5b5f15155f808381526020019081526020015f2060060160159054906101000a900460ff161515146129fe576040517f08c379a00000000000000000000000000000000000000000000000000000000081526004016129f5906134bb565b60405180910390fd5b8484805f808481526020019081526020015f206003015410612a55576040517f08c379a0000000000000000000000000000000000000000000000000000000008152600401612a4c9061357e565b60405180910390fd5b845f808981526020019081526020015f206004015f8881526020019081526020015f209081612a849190613aa3565b50600193505050509392505050565b60015481565b5f808303612aa9575f9050612ad8565b5f8284612ab69190613f47565b9050828482612ac59190613fb5565b14612ad357612ad2613fe5565b5b809150505b92915050565b5f805f8381526020019081526020015f206006015f9054906101000a900473ffffffffffffffffffffffffffffffffffffffff1690505f8173ffffffffffffffffffffffffffffffffffffffff16674563918244f40000604051612b419061377c565b5f6040518083038185875af1925050503d805f8114612b7b576040519150601f19603f3d011682016040523d82523d5f602084013e612b80565b606091505b5050905080612bc4576040517f08c379a0000000000000000000000000000000000000000000000000000000008152600401612bbb9061405c565b60405180910390fd5b505050565b5f60025f9054906101000a900473ffffffffffffffffffffffffffffffffffffffff1673ffffffffffffffffffffffffffffffffffffffff163373ffffffffffffffffffffffffffffffffffffffff1614612c59576040517f08c379a0000000000000000000000000000000000000000000000000000000008152600401612c50906133eb565b60405180910390fd5b5f80600190505b6001548111612cd1575f15155f808381526020019081526020015f2060060160159054906101000a900460ff16151503612cbe57835f808381526020019081526020015f206002015403612cbd578180612cb990613c00565b9250505b5b8080612cc990613c00565b915050612c60565b505f8114612ce2575f915050612ce8565b60019150505b919050565b5f60025f9054906101000a900473ffffffffffffffffffffffffffffffffffffffff1673ffffffffffffffffffffffffffffffffffffffff163373ffffffffffffffffffffffffffffffffffffffff1614612d7d576040517f08c379a0000000000000000000000000000000000000000000000000000000008152600401612d74906133eb565b60405180910390fd5b5f80600190505b6001548111612e40575f15155f808381526020019081526020015f2060060160159054906101000a900460ff16151503612e2d578373ffffffffffffffffffffffffffffffffffffffff165f808381526020019081526020015f206006015f9054906101000a900473ffffffffffffffffffffffffffffffffffffffff1673ffffffffffffffffffffffffffffffffffffffff1603612e2c578180612e2890613c00565b9250505b5b8080612e3890613c00565b915050612d84565b505f8114612e51575f915050612e57565b60019150505b919050565b5f604051905090565b5f80fd5b5f80fd5b5f819050919050565b612e7f81612e6d565b8114612e89575f80fd5b50565b5f81359050612e9a81612e76565b92915050565b5f8060408385031215612eb657612eb5612e65565b5b5f612ec385828601612e8c565b9250506020612ed485828601612e8c565b9150509250929050565b5f8115159050919050565b612ef281612ede565b82525050565b5f602082019050612f0b5f830184612ee9565b92915050565b5f81519050919050565b5f82825260208201905092915050565b5f5b83811015612f48578082015181840152602081019050612f2d565b5f8484015250505050565b5f601f19601f8301169050919050565b5f612f6d82612f11565b612f778185612f1b565b9350612f87818560208601612f2b565b612f9081612f53565b840191505092915050565b5f6020820190508181035f830152612fb38184612f63565b905092915050565b612fc481612e6d565b82525050565b5f602082019050612fdd5f830184612fbb565b92915050565b5f80fd5b5f80fd5b7f4e487b71000000000000000000000000000000000000000000000000000000005f52604160045260245ffd5b61302182612f53565b810181811067ffffffffffffffff821117156130405761303f612feb565b5b80604052505050565b5f613052612e5c565b905061305e8282613018565b919050565b5f67ffffffffffffffff82111561307d5761307c612feb565b5b61308682612f53565b9050602081019050919050565b828183375f83830152505050565b5f6130b36130ae84613063565b613049565b9050828152602081018484840111156130cf576130ce612fe7565b5b6130da848285613093565b509392505050565b5f82601f8301126130f6576130f5612fe3565b5b81356131068482602086016130a1565b91505092915050565b5f806040838503121561312557613124612e65565b5b5f61313285828601612e8c565b925050602083013567ffffffffffffffff81111561315357613152612e69565b5b61315f858286016130e2565b9150509250929050565b5f6020828403121561317e5761317d612e65565b5b5f61318b84828501612e8c565b91505092915050565b5f73ffffffffffffffffffffffffffffffffffffffff82169050919050565b5f6131bd82613194565b9050919050565b6131cd816131b3565b82525050565b5f6020820190506131e65f8301846131c4565b92915050565b5f6060820190508181035f8301526132048186612f63565b90506132136020830185612fbb565b6132206040830184612fbb565b949350505050565b5f60608201905061323b5f830186612fbb565b818103602083015261324d8185612f63565b905061325c6040830184612fbb565b949350505050565b5f805f6060848603121561327b5761327a612e65565b5b5f61328886828701612e8c565b935050602061329986828701612e8c565b925050604084013567ffffffffffffffff8111156132ba576132b9612e69565b5b6132c6868287016130e2565b9150509250925092565b6132d9816131b3565b81146132e3575f80fd5b50565b5f813590506132f4816132d0565b92915050565b5f805f806080858703121561331257613311612e65565b5b5f85013567ffffffffffffffff81111561332f5761332e612e69565b5b61333b878288016130e2565b945050602061334c87828801612e8c565b935050604061335d87828801612e8c565b925050606061336e878288016132e6565b91505092959194509250565b5f60408201905061338d5f830185612fbb565b61339a6020830184612ee9565b9392505050565b7f6e6f7420746865206f776e6572000000000000000000000000000000000000005f82015250565b5f6133d5600d83612f1b565b91506133e0826133a1565b602082019050919050565b5f6020820190508181035f830152613402816133c9565b9050919050565b7f53747564656e74206e6f742072656769737465726564000000000000000000005f82015250565b5f61343d601683612f1b565b915061344882613409565b602082019050919050565b5f6020820190508181035f83015261346a81613431565b9050919050565b7f53747564656e7420616c72656164792064656c657465642e00000000000000005f82015250565b5f6134a5601883612f1b565b91506134b082613471565b602082019050919050565b5f6020820190508181035f8301526134d281613499565b9050919050565b5f6060820190506134ec5f830186612fbb565b6134f96020830185612fbb565b6135066040830184612fbb565b949350505050565b7f4861736e2774207061737365642074686520676976656e2073656d65737465725f8201527f2e20557064617465207468652073656d65737465720000000000000000000000602082015250565b5f613568603583612f1b565b91506135738261350e565b604082019050919050565b5f6020820190508181035f8301526135958161355c565b9050919050565b7f4e487b71000000000000000000000000000000000000000000000000000000005f52602260045260245ffd5b5f60028204905060018216806135e057607f821691505b6020821081036135f3576135f261359c565b5b50919050565b7f4e487b71000000000000000000000000000000000000000000000000000000005f52601160045260245ffd5b5f61363082612e6d565b915061363b83612e6d565b9250828201905080821115613653576136526135f9565b5b92915050565b7f416d6f756e74206d7573742062652067726561746572207468616e207a65726f5f82015250565b5f61368d602083612f1b565b915061369882613659565b602082019050919050565b5f6020820190508181035f8301526136ba81613681565b9050919050565b7f496e73756666696369656e742062616c616e636520696e20636f6e74726163745f8201527f2e00000000000000000000000000000000000000000000000000000000000000602082015250565b5f61371b602183612f1b565b9150613726826136c1565b604082019050919050565b5f6020820190508181035f8301526137488161370f565b9050919050565b5f81905092915050565b50565b5f6137675f8361374f565b915061377282613759565b5f82019050919050565b5f6137868261375c565b9150819050919050565b7f5472616e73666572206661696c656400000000000000000000000000000000005f82015250565b5f6137c4600f83612f1b565b91506137cf82613790565b602082019050919050565b5f6020820190508181035f8301526137f1816137b8565b9050919050565b5f819050815f5260205f209050919050565b5f8154613816816135c9565b6138208186612f1b565b9450600182165f811461383a576001811461385057613882565b60ff198316865281151560200286019350613882565b613859856137f8565b5f5b8381101561387a5781548189015260018201915060208101905061385b565b808801955050505b50505092915050565b5f60808201905061389e5f830187612fbb565b81810360208301526138b0818661380a565b90506138bf6040830185612fbb565b6138cc60608301846131c4565b95945050505050565b5f6060820190506138e85f830186612fbb565b81810360208301526138fa818561380a565b9050818103604083015261390e8184612f63565b9050949350505050565b5f6020601f8301049050919050565b5f82821b905092915050565b5f600883026139627fffffffffffffffffffffffffffffffffffffffffffffffffffffffffffffffff82613927565b61396c8683613927565b95508019841693508086168417925050509392505050565b5f819050919050565b5f6139a76139a261399d84612e6d565b613984565b612e6d565b9050919050565b5f819050919050565b6139c08361398d565b6139d46139cc826139ae565b848454613933565b825550505050565b5f90565b6139e86139dc565b6139f38184846139b7565b505050565b5b81811015613a1657613a0b5f826139e0565b6001810190506139f9565b5050565b601f821115613a5b57613a2c816137f8565b613a3584613918565b81016020851015613a44578190505b613a58613a5085613918565b8301826139f8565b50505b505050565b5f82821c905092915050565b5f613a7b5f1984600802613a60565b1980831691505092915050565b5f613a938383613a6c565b9150826002028217905092915050565b613aac82612f11565b67ffffffffffffffff811115613ac557613ac4612feb565b5b613acf82546135c9565b613ada828285613a1a565b5f60209050601f831160018114613b0b575f8415613af9578287015190505b613b038582613a88565b865550613b6a565b601f198416613b19866137f8565b5f5b82811015613b4057848901518255600182019150602085019450602081019050613b1b565b86831015613b5d5784890151613b59601f891682613a6c565b8355505b6001600288020188555050505b505050505050565b7f4d61782d417474656e64616e636520666f7220746869732073656d65737465725f8201527f206973206e6f74207365742e0000000000000000000000000000000000000000602082015250565b5f613bcc602c83612f1b565b9150613bd782613b72565b604082019050919050565b5f6020820190508181035f830152613bf981613bc0565b9050919050565b5f613c0a82612e6d565b91507fffffffffffffffffffffffffffffffffffffffffffffffffffffffffffffffff8203613c3c57613c3b6135f9565b5b600182019050919050565b7f4e487b71000000000000000000000000000000000000000000000000000000005f52603260045260245ffd5b7f496e73756666696369656e742042616c616e63652e00000000000000000000005f82015250565b5f613ca8601583612f1b565b9150613cb382613c74565b602082019050919050565b5f6020820190508181035f830152613cd581613c9c565b9050919050565b5f604082019050613cef5f830185612fbb565b613cfc60208301846131c4565b9392505050565b7f4e6f2067726164652e20466972737420616464206772616465000000000000005f82015250565b5f613d37601983612f1b565b9150613d4282613d03565b602082019050919050565b5f6020820190508181035f830152613d6481613d2b565b9050919050565b7f54686520526f6c6c206e6f20616c72656164792065786973742e0000000000005f82015250565b5f613d9f601a83612f1b565b9150613daa82613d6b565b602082019050919050565b5f6020820190508181035f830152613dcc81613d93565b9050919050565b7f5468652070726f76696465642077616c6c6574206b657920616c7265616479205f8201527f6578697374000000000000000000000000000000000000000000000000000000602082015250565b5f613e2d602583612f1b565b9150613e3882613dd3565b604082019050919050565b5f6020820190508181035f830152613e5a81613e21565b9050919050565b7f53747564656e74207769746820676976656e20526f6c6c206e6f20616c7265615f8201527f6479206578697374000000000000000000000000000000000000000000000000602082015250565b5f613ebb602883612f1b565b9150613ec682613e61565b604082019050919050565b5f6020820190508181035f830152613ee881613eaf565b9050919050565b5f60a082019050613f025f830188612fbb565b8181036020830152613f148187612f63565b9050613f236040830186612fbb565b613f306060830185612fbb565b613f3d60808301846131c4565b9695505050505050565b5f613f5182612e6d565b9150613f5c83612e6d565b9250828202613f6a81612e6d565b91508282048414831517613f8157613f806135f9565b5b5092915050565b7f4e487b71000000000000000000000000000000000000000000000000000000005f52601260045260245ffd5b5f613fbf82612e6d565b9150613fca83612e6d565b925082613fda57613fd9613f88565b5b828204905092915050565b7f4e487b71000000000000000000000000000000000000000000000000000000005f52600160045260245ffd5b7f5472616e73666572204661696c65642e000000000000000000000000000000005f82015250565b5f614046601083612f1b565b915061405182614012565b602082019050919050565b5f6020820190508181035f8301526140738161403a565b905091905056fea264697066735822122030925f528b018125706fa5a8a3ccf9852c3be9473952e661f9c5ad18651c35a064736f6c63430008150033",
  "immutableReferences": {},
  "source": "// SPDX-License-Identifier: SEE LICENSE IN LICENSE\n\npragma solidity >=0.8.0;\n\ncontract StudentRecords {\n    using SafeMath for uint;\n\n    struct Student {\n        uint id;\n        string name;\n        uint rollNo;\n        uint semester;\n        mapping(uint => string) grade;\n        mapping(uint => uint) attendance;\n        address studentWallet;\n        bool isRegistered;\n        bool isDeleted;\n    }\n    mapping(uint => Student) students; //To map each id to student, automatically stored on storage.\n    uint public studentCount; //Global variable, automatically stored on storage & assigned 0.\n\n    address public _owner;\n    mapping(uint => uint) maxAttendance;\n\n    constructor() {\n        _owner = msg.sender;\n    }\n\n    modifier onlyOwner() {\n        require(msg.sender == _owner, \"not the owner\");\n        _;\n    }\n    modifier checkStudent(uint id) {\n        require(students[id].isRegistered, \"Student not registered\");\n        require(students[id].isDeleted == false, \"Student already deleted.\");\n        _;\n    }\n    modifier checkSem(uint id, uint sem) {\n        require(\n            students[id].semester < sem,\n            \"Hasn't passed the given semester. Update the semester\"\n        );\n        _;\n    }\n\n    event studentRegistered(\n        uint id,\n        string name,\n        uint roll,\n        uint sem,\n        address walletKey\n    );\n    event nameUpdated(uint id, string oldName, string newName);\n    event rollUpdated(uint id, uint oldRoll, uint newRoll);\n    event semUpdated(uint id, uint oldSem, uint newSem);\n    event gradeUpdated(uint id, string oldGrade, string newGrade);\n    event deposited(uint amount, address from);\n    event etherSent(uint amount, string name, uint id, address _address);\n\n    function registerStudent(\n        string memory name,\n        uint rollno,\n        uint sem,\n        address key\n    ) public onlyOwner returns (uint, bool) {\n        require(checkWallet(key), \"The provided wallet key already exist\");\n        require(checkRoll(rollno), \"Student with given Roll no already exist\");\n        studentCount++;\n\n        students[studentCount].id = studentCount;\n        students[studentCount].name = name;\n        students[studentCount].rollNo = rollno;\n        students[studentCount].semester = sem;\n        students[studentCount].attendance[sem] = 0;\n        students[studentCount].studentWallet = key;\n        students[studentCount].isRegistered = true;\n        students[studentCount].isDeleted = false;\n\n        emit studentRegistered(studentCount, name, rollno, sem, key);\n        return (studentCount, true);\n    }\n\n    function getStudent(\n        uint id\n    ) public view checkStudent(id) returns (string memory, uint, uint) {\n        return (students[id].name, students[id].rollNo, students[id].semester);\n    }\n\n    /*\n    function getStudentFullInfo(\n        uint id\n    )\n        public\n        view\n        onlyOwner\n        checkStudent(id)\n        returns (\n            uint,\n            string memory,\n            uint,\n            uint,\n            string memory,\n            uint,\n            address,\n            bool,\n            bool\n        )\n    {\n        uint currentSem = students[id].semester;\n        return (\n            students[id].id,\n            students[id].name,\n            students[id].rollNo,\n            currentSem,\n            students[id].grade[currentSem],\n            students[id].attendance[currentSem],\n            students[id].studentWallet,\n            students[id].isRegistered,\n            students[id].isDeleted\n        );\n    }\n\n*/\n    function getStudentBasicInfo(\n        uint id\n    ) public view onlyOwner checkStudent(id) returns (uint, string memory, uint) {\n        return (students[id].id, students[id].name, students[id].rollNo);\n    }\n\n    function getStudentGrades(\n        uint id,\n        uint sem\n    ) public view onlyOwner checkStudent(id) returns (string memory) {\n        return students[id].grade[sem];\n    }\n\n    function getWallet(uint id) public view returns (address) {\n        return (students[id].studentWallet);\n    }\n\n    function updateName(\n        uint id,\n        string memory name\n    ) public onlyOwner checkStudent(id) returns (bool) {\n        emit nameUpdated(id, students[id].name, name);\n        students[id].name = name;\n        return true;\n    }\n\n    function updateRoll(\n        uint id,\n        uint roll\n    ) public onlyOwner checkStudent(id) returns (bool) {\n        require(checkRoll(roll), \"The Roll no already exist.\");\n        emit rollUpdated(id, students[id].rollNo, roll);\n        students[id].rollNo = roll;\n        return true;\n    }\n\n    function updateSem(\n        uint id,\n        uint sem\n    ) public onlyOwner checkStudent(id) returns (bool) {\n        emit semUpdated(id, students[id].semester, sem);\n        students[id].semester = sem;\n        return true;\n    }\n\n    function addGrade(\n        uint id,\n        uint sem,\n        string memory _grade\n    ) public onlyOwner checkStudent(id) checkSem(id, sem) returns (bool) {\n        students[id].grade[sem] = _grade;\n        return true;\n    }\n\n    function getGrade(\n        uint id,\n        uint sem\n    ) public view checkStudent(id) checkSem(id, sem) returns (string memory a) {\n        return students[id].grade[sem];\n    }\n\n    //Semester wise grade\n    function updateGrade(\n        uint id,\n        uint sem,\n        string memory _grade\n    ) public onlyOwner checkStudent(id) returns (bool) {\n        require(\n            bytes(students[id].grade[sem]).length != 0,\n            \"No grade. First add grade\"\n        );\n        emit gradeUpdated(id, students[id].grade[sem], _grade);\n        students[id].grade[sem] = _grade;\n        return true;\n    }\n\n    //Semester wise attendance\n    function updateAttendance(\n        uint id,\n        uint sem\n    ) public onlyOwner checkStudent(id) checkSem(id, sem) returns (bool) {\n        students[id].attendance[sem] += 1;\n        return true;\n    }\n\n    function getAttendance(\n        uint id,\n        uint sem\n    ) public view checkStudent(id) checkSem(id, sem) returns (uint) {\n        return students[id].attendance[sem];\n    }\n\n    function balanceOf(uint id) public view checkStudent(id) returns (uint) {\n        address stuAddress = students[id].studentWallet;\n        return (address(stuAddress).balance);\n    }\n\n    function checkRoll(uint roll) internal view onlyOwner returns (bool) {\n        uint count = 0;\n        for (uint i = 1; i <= studentCount; i++) {\n            if (students[i].isDeleted == false) {\n                if (students[i].rollNo == roll) {\n                    count++;\n                }\n            }\n        }\n        if (count != 0) {\n            return false;\n        } else {\n            return true;\n        }\n    }\n\n    function checkWallet(\n        address stuAddress\n    ) internal view onlyOwner returns (bool) {\n        uint count = 0;\n        for (uint i = 1; i <= studentCount; i++) {\n            if (students[i].isDeleted == false) {\n                if (students[i].studentWallet == stuAddress) {\n                    count++;\n                }\n            }\n        }\n        if (count != 0) {\n            return false;\n        } else {\n            return true;\n        }\n    }\n\n    function viewBalance() public view onlyOwner returns (uint) {\n        return address(this).balance;\n    }\n\n    function deposit(uint amount) public payable onlyOwner returns (bool) {\n        //In web3 js interface we specify value in calling deposit()\n        require(amount > 0, \"Amount must be greater than zero\");\n        emit deposited(amount, _owner);\n\n        return true;\n    }\n\n    function sendEther(uint amount, uint id) public onlyOwner returns (bool) {\n        require(amount > 0, \"Amount must be greater than zero\");\n        require(\n            address(this).balance > amount,\n            \"Insufficient balance in contract.\"\n        );\n\n        address receiver = students[id].studentWallet;\n        (bool success, ) = receiver.call{value: amount}(\"\");\n        require(success, \"Transfer failed\");\n        emit etherSent(amount, students[id].name, id, receiver);\n\n        return true;\n    }\n\n    function setAttendance(\n        uint value,\n        uint sem\n    ) public onlyOwner returns (bool) {\n        maxAttendance[sem] = value;\n        return true;\n    }\n\n    function sendPrize(uint id) internal {\n        address receiver = students[id].studentWallet;\n        (bool success, ) = receiver.call{value: 5 * 1 ether}(\"\");\n        require(success, \"Transfer Failed.\");\n    }\n\n    function distributePrize(uint sem) public onlyOwner returns (bool) {\n        require(\n            maxAttendance[sem] > 0,\n            \"Max-Attendance for this semester is not set.\"\n        );\n        uint count;\n        uint index;\n\n        for (uint i = 1; i <= studentCount; i++) {\n            if (students[i].isDeleted == false) {\n                uint _sem = students[i].semester;\n                if (_sem == sem) {\n                    count += 1;\n                }\n            }\n        }\n\n        uint[] memory totalStudents = new uint[](count);\n\n        for (uint i = 1; i <= studentCount; i++) {\n            if (students[i].isDeleted == false) {\n                uint _sem = students[i].semester;\n                if (_sem == sem) {\n                    totalStudents[index] = i;\n                    index += 1;\n                }\n            }\n        }\n\n        count = 0;\n        index = 0;\n\n        for (uint i = 0; i < totalStudents.length; i++) {\n            uint id = totalStudents[i];\n\n            if (students[id].isDeleted == false) {\n                uint _attendance = students[id].attendance[sem];\n                if (_attendance == maxAttendance[sem]) {\n                    count += 1;\n                }\n            }\n        }\n\n        uint[] memory boringStudents = new uint[](count);\n        for (uint i = 0; i < totalStudents.length; i++) {\n            uint id = totalStudents[i];\n\n            if (students[i].isDeleted == false) {\n                uint _attendance = students[id].attendance[sem];\n                if (_attendance == maxAttendance[sem]) {\n                    boringStudents[index] = id;\n                    index += 1;\n                }\n            }\n        }\n\n        uint totalBorers = boringStudents.length;\n        uint requiredAmount = totalBorers.mul(5 * 1 ether);\n\n        require(\n            address(this).balance >= requiredAmount,\n            \"Insufficient Balance.\"\n        );\n\n        for (uint i = 0; i < totalBorers; i++) {\n            uint id = boringStudents[i];\n            sendPrize(id);\n        }\n\n        return true;\n    }\n\n    function deleteStudent(\n        uint id\n    ) public onlyOwner checkStudent(id) returns (bool) {\n        students[id].isDeleted = true;\n        return true;\n    }\n}\n\nlibrary SafeMath {\n    function sub(uint256 a, uint256 b) internal pure returns (uint256) {\n        assert(b <= a);\n        return a - b;\n    }\n\n    function add(uint256 a, uint256 b) internal pure returns (uint256) {\n        uint256 c = a + b;\n        assert(c >= a);\n        return c;\n    }\n\n    function mul(uint256 a, uint256 b) internal pure returns (uint256) {\n        // Gas optimization: this is cheaper than requiring 'a' not being zero, but the benefit\n        // is lost if 'b' is also tested.\n        if (a == 0) {\n            return 0;\n        }\n\n        uint256 c = a * b;\n        assert(c / a == b); // Ensures no overflow occurred\n        return c;\n    }\n}\n",
  "sourcePath": "/home/sandarva3/Desktop/truffle/project/contracts/records.sol",
  "compiler": {
    "name": "solc",
    "version": "0.8.21+commit.d9974bed.Emscripten.clang"
  },
  "schemaVersion": "3.4.16",
  "updatedAt": "2024-12-30T10:42:58.872Z",
  "networkType": "ethereum",
  "devdoc": {
    "kind": "dev",
    "methods": {},
    "version": 1
  },
  "userdoc": {
    "kind": "user",
    "methods": {},
    "version": 1
  }
}